:020000040800F2
:1000000000000420ED420108C9410108D741010860
:10001000DD410108E3410108E94101080000000059
:1000200000000000000000000000000091C801086E
:10003000EF4101080000000091CA0108F9CA010857
:100040003D4301083D4301083D4301083D4301088C
:100050003D4301083D4301083D4301083D4301087C
:100060003D4301083D4301083D4301083D4301086C
:100070003D4301083D4301083D4301083D4301085C
:100080003D4301083D4301083D4301083D4301084C
:100090003D4301083D4301083D430108FD4101087E
:1000A0003D4301083D4301083D4301083D4301082C
:1000B0003D4301083D4301083D4301083D4301081C
:1000C0003D4301083D4301083D4301083D4301080C
:1000D0003D4301083D430108454201083D430108F5
:1000E0003D4301083D4301083D4301083D430108EC
:1000F0003D4301083D4301083D4301083D430108DC
:100100003D4301083D4301083D4301083D430108CB
:100110003D4301083D430108594201083D430108A0
:100120003D4301083D4301083D4301086D4201087C
:100130003D43010800000000000000000000000036
:100140000000000000000000000000003D43010826
:100150003D4301083D4301083D4301083D4301087B
:100160003D4301083D4301083D4301083D4301086B
:100170003D4301083D43010800000000000000006D
:100180003D4301083D4301083D4301083D4301084B
:100190003D4301083D430108000000003D430108C4
:1001A0000000000000000000000000003D430108C6
:1001B0003D4301083D43010800000000000000002D
:1001C000000000000000000000000000000000002F
:1001D0000000000000000000000000003D43010896
:1001E00010B5054C237833B9044B13B10448AFF371
:1001F00000800123237010BD740200200000000065
:10020000ACE1010808B5034B1BB103490348AFF348
:10021000008008BD0000000078020020ACE1010869
:1002200081F0004102E000BF83F0004330B54FEAA7
:1002300041044FEA430594EA050F08BF90EA020F14
:100240001FBF54EA000C55EA020C7FEA645C7FEAA7
:10025000655C00F0E2804FEA5454D4EB5555B8BFCA
:100260006D420CDD2C4480EA020281EA030382EA3B
:10027000000083EA010180EA020281EA0303362DCD
:1002800088BF30BD11F0004F4FEA01314FF4801CA0
:100290004CEA113102D0404261EB410113F0004FB2
:1002A0004FEA03334CEA133302D0524263EB430369
:1002B00094EA050F00F0A780A4F10104D5F1200E07
:1002C0000DDB02FA0EFC22FA05F2801841F1000162
:1002D00003FA0EF2801843FA05F359410EE0A5F136
:1002E00020050EF1200E012A03FA0EFC28BF4CF067
:1002F000020C43FA05F3C01851EBE37101F000451D
:1003000007D54FF0000EDCF1000C7EEB00006EEB29
:100310000101B1F5801F1BD3B1F5001F0CD34908B3
:100320005FEA30004FEA3C0C04F101044FEA44520A
:1003300012F5800F80F09A80BCF1004F08BF5FEA91
:10034000500C50F1000041EB045141EA050130BD71
:100350005FEA4C0C404141EB010111F4801FA4F114
:100360000104E9D191F0000F04BF01460020B1FA69
:1003700081F308BF2033A3F10B03B3F120020CDAA1
:100380000C3208DD02F1140CC2F10C0201FA0CF07F
:1003900021FA02F10CE002F11402D8BFC2F1200CE4
:1003A00001FA02F120FA0CFCDCBF41EA0C0190409A
:1003B000E41AA2BF01EB0451294330BD6FEA0404E3
:1003C0001F3C1CDA0C340EDC04F11404C4F12002CE
:1003D00020FA04F001FA02F340EA030021FA04F3E0
:1003E00045EA030130BDC4F10C04C4F1200220FA37
:1003F00002F001FA04F340EA0300294630BD21FA75
:1004000004F0294630BD94F0000F83F4801306BF3A
:1004100081F480110134013D4EE77FEA645C18BF2E
:100420007FEA655C29D094EA050F08BF90EA020FC5
:1004300005D054EA000C04BF1946104630BD91EABD
:10044000030F1EBF0021002030BD5FEA545C05D1C0
:100450004000494128BF41F0004130BD14F58004FF
:100460003CBF01F5801130BD01F0004545F0FE4173
:1004700041F470014FF0000030BD7FEA645C1ABFA8
:10048000194610467FEA655C1CBF0B46024650EADF
:10049000013406BF52EA033591EA030F41F400210B
:1004A00030BD00BF90F0000F04BF0021704730B591
:1004B0004FF4806404F132044FF000054FF0000166
:1004C00050E700BF90F0000F04BF0021704730B527
:1004D0004FF4806404F1320410F0004548BF4042FC
:1004E0004FF000013EE700BF42004FEAE2014FEA51
:1004F00031014FEA02701FBF12F07F4393F07F4F2C
:1005000081F06051704732F07F4208BF704793F02E
:100510007F4F04BF41F40021704730B54FF4607441
:1005200001F0004521F000411CE700BF50EA010244
:1005300008BF704730B54FF000050AE050EA0102ED
:1005400008BF704730B511F0004502D5404261EB5D
:1005500041014FF4806404F132045FEA915C3FF49E
:10056000D8AE4FF003025FEADC0C18BF03325FEA3B
:10057000DC0C18BF033202EBDC02C2F1200300FAEC
:1005800003FC20FA02F001FA03FE40EA0E0021FA11
:1005900002F11444BDE600BF70B54FF0FF0C4CF4FF
:1005A000E06C1CEA11541DBF1CEA135594EA0C0FB1
:1005B00095EA0C0F00F0DEF82C4481EA030621EAEC
:1005C0004C5123EA4C5350EA013518BF52EA033527
:1005D00041F4801143F4801338D0A0FB02CE4FF0D9
:1005E0000005E1FB02E506F00042E0FB03E54FF009
:1005F0000006E1FB03569CF0000F18BF4EF0010E01
:10060000A4F1FF04B6F5007F64F5407404D25FEAFC
:100610004E0E6D4146EB060642EAC62141EA5551AF
:100620004FEAC52040EA5E504FEACE2EB4F1FD0CF1
:1006300088BFBCF5E06F1ED8BEF1004F08BF5FEA6F
:10064000500E50F1000041EB045170BD06F0004621
:1006500046EA010140EA020081EA0301B4EB5C04CE
:10066000C2BFD4EB0C0541EA045170BD41F48011C6
:100670004FF0000E013C00F3AB8014F1360FDEBFEB
:10068000002001F0004170BDC4F10004203C35DAC7
:100690000C341BDC04F11404C4F1200500FA05F34A
:1006A00020FA04F001FA05F240EA020001F00042EB
:1006B00021F0004110EBD37021FA04F642EB060161
:1006C0005EEA430E08BF20EAD37070BDC4F10C048B
:1006D000C4F1200500FA04F320FA05F001FA04F24F
:1006E00040EA020001F0004110EBD37041F100013B
:1006F0005EEA430E08BF20EAD37070BDC4F1200546
:1007000000FA05F24EEA020E20FA04F301FA05F2AD
:1007100043EA020321FA04F001F0004121FA04F255
:1007200020EA020000EBD3705EEA430E08BF20EA25
:10073000D37070BD94F0000F0FD101F0004640005F
:1007400041EB010111F4801F08BF013CF7D041EAE1
:10075000060195F0000F18BF704703F000465200E5
:1007600043EB030313F4801F08BF013DF7D043EAB6
:100770000603704794EA0C0F0CEA135518BF95EA6C
:100780000C0F0CD050EA410618BF52EA4306D1D1F3
:1007900081EA030101F000414FF0000070BD50EA12
:1007A000410606BF1046194652EA430619D094EA9C
:1007B0000C0F02D150EA013613D195EA0C0F05D186
:1007C00052EA03361CBF104619460AD181EA0301DA
:1007D00001F0004141F0FE4141F470014FF0000092
:1007E00070BD41F0FE4141F4780170BD70B54FF02D
:1007F000FF0C4CF4E06C1CEA11541DBF1CEA1355AD
:1008000094EA0C0F95EA0C0F00F0A7F8A4EB05048E
:1008100081EA030E52EA03354FEA013100F0888085
:100820004FEA03334FF0805545EA131343EA12634E
:100830004FEA022245EA111545EA10654FEA002603
:100840000EF000419D4208BF964244F1FD0404F5BC
:10085000407402D25B084FEA3202B61A65EB030518
:100860005B084FEA32024FF480104FF4002CB6EBD5
:10087000020E75EB030E22BFB61A754640EA0C0055
:100880005B084FEA3202B6EB020E75EB030E22BF95
:10089000B61A754640EA5C005B084FEA3202B6EBD6
:1008A000020E75EB030E22BFB61A754640EA9C0095
:1008B0005B084FEA3202B6EB020E75EB030E22BF65
:1008C000B61A754640EADC0055EA060E18D04FEA23
:1008D000051545EA16754FEA06164FEAC30343EAC3
:1008E00052734FEAC2025FEA1C1CC0D111F4801F90
:1008F0000BD141EA00014FF000004FF0004CB6E789
:1009000011F4801F04BF01430020B4F1FD0C88BF27
:10091000BCF5E06F3FF6AFAEB5EB030C04BFB6EB32
:10092000020C5FEA500C50F1000041EB045170BD25
:100930000EF0004E4EEA113114EB5C04C2BFD4EB52
:100940000C0541EA045170BD41F480114FF0000ED6
:10095000013C90E645EA060E8DE60CEA135594EA52
:100960000C0F08BF95EA0C0F3FF43BAF94EA0C0F55
:100970000AD150EA01347FF434AF95EA0C0F7FF4CA
:1009800025AF104619462CE795EA0C0F06D152EA1E
:1009900003353FF4FDAE1046194622E750EA410602
:1009A00018BF52EA43067FF4C5AE50EA41047FF413
:1009B0000DAF52EA43057FF4EBAE12E74FF0FF3C78
:1009C00006E000BF4FF0010C02E000BF4FF0010C49
:1009D0004DF804CD4FEA410C7FEA6C5C4FEA430CC2
:1009E00018BF7FEA6C5C1BD001B050EA410C0CBF11
:1009F00052EA430C91EA030F02BF90EA020F002073
:100A0000704710F1000F91EA030F58BF994208BFD9
:100A100090422CBFD8176FEAE37040F00100704796
:100A20004FEA410C7FEA6C5C02D150EA013C07D1ED
:100A30004FEA430C7FEA6C5CD6D152EA033CD3D038
:100A40005DF8040B704700BF8446104662468C4632
:100A50001946634600E000BF01B5FFF7B7FF002865
:100A600048BF10F1000F01BD4DF808EDFFF7F4FF8E
:100A70000CBF012000205DF808FB00BF4DF808ED19
:100A8000FFF7EAFF34BF012000205DF808FB00BF3C
:100A90004DF808EDFFF7E0FF94BF012000205DF85E
:100AA00008FB00BF4DF808EDFFF7CEFF94BF012013
:100AB00000205DF808FB00BF4DF808EDFFF7C4FF0C
:100AC00034BF012000205DF808FB00BF4FEA41025F
:100AD00012F5001215D211D56FF47873B3EB625290
:100AE00012D94FEAC12343F0004343EA505311F0B7
:100AF000004F23FA02F018BF404270474FF0000049
:100B0000704750EA013005D111F0004008BF6FF086
:100B1000004070474FF00000704700BF4A0011D2FC
:100B200012F5001211D20DD56FF47873B3EB625247
:100B30000ED44FEAC12343F0004343EA505323FA53
:100B400002F070474FF00000704750EA013002D1C8
:100B50004FF0FF3070474FF0000070474FEA4102FE
:100B6000B2F1E04324BFB3F5001CDCF1FE5C0DD90B
:100B700001F0004C4FEAC0024CEA5070B2F1004F55
:100B800040EB830008BF20F00100704711F0804F58
:100B900021D113F13872BCBF01F00040704741F41D
:100BA00080114FEA5252C2F11802C2F1200C10FA21
:100BB0000CF320FA02F018BF40F001004FEAC12305
:100BC0004FEAD32303FA0CFC40EA0C0023FA02F3A9
:100BD0004FEA4303CCE77FEA625307D150EA01337F
:100BE0001EBF4FF0FE4040F44000704701F000404F
:100BF00040F0FE4040F40000704700BF53B94AB9CE
:100C0000002908BF00281CBF4FF0FF314FF0FF3014
:100C100000F072B9ADF1080C6DE904CE00F006F8F1
:100C2000DDF804E0DDE9022304B070472DE9F04768
:100C3000089E04468846002B4BD18A42154667D948
:100C4000B2FA82F24AB1C2F1200701FA02F320FAA5
:100C500007F7954047EA030894404FEA154E230CE6
:100C6000B8FBFEF71FFA85FC0EFB178843EA084322
:100C700007FB0CF1994209D9EB1807F1FF3080F01E
:100C80001B81994240F21881023F2B445B1AA4B2A7
:100C9000B3FBFEF00EFB103344EA034400FB0CFCF4
:100CA000A44509D92C1900F1FF3380F00781A44530
:100CB00040F2048102382C4440EA0740A4EB0C04C3
:100CC00000271EB1D4400023C6E900433946BDE8E1
:100CD000F0878B4209D9002E00F0EB800027C6E98F
:100CE000000138463946BDE8F087B3FA83F7002F94
:100CF00047D18B4202D3824200F2FA80841A61EB20
:100D0000030301209846002EE0D0C6E90048DDE745
:100D100002B9FFDEB2FA82F2002A40F08F80491B4E
:100D20004FEA154E1FFA85F80127B1FBFEFC230C94
:100D30000EFB1C1143EA014308FB0CF1994207D951
:100D4000EB180CF1FF3002D2994200F2CD808446BC
:100D5000591AA3B2B1FBFEF00EFB101443EA04448F
:100D600008FB00F8A04507D92C1900F1FF3302D287
:100D7000A04500F2B6801846A4EB080440EA0C40F7
:100D80009FE7C7F1200CBB4022FA0CFE4EEA030E8F
:100D900001FA07F420FA0CF521FA0CF34FEA1E4889
:100DA0002543B3FBF8F92C0C08FB19331FFA8EFA14
:100DB00044EA034309FB0AF49C4202FA07F200FAF0
:100DC00007F10BD91EEB030309F1FF3080F0878098
:100DD0009C4240F28480A9F1020973441B1BADB20E
:100DE000B3FBF8F008FB103345EA034400FB0AFAB2
:100DF000A24508D91EEB040400F1FF336BD2A245D3
:100E000069D90238744440EA0940A0FB0289A4EB86
:100E10000A044C45C2464B4654D351D0002E69D0EB
:100E2000B1EB0A0564EB030404FA0CFCFD40FC4042
:100E30004CEA0505C6E90054002747E7C2F1200344
:100E400020FA03F7954001FA02F021FA03F34FEA82
:100E5000154E3843010CB3FBFEF71FFA85F80EFB65
:100E6000173341EA034107FB08F38B4204FA02F40B
:100E700007D9691807F1FF3C2FD28B422DD9023FC9
:100E80002944CB1A81B2B3FBFEF00EFB103341EACA
:100E9000034100FB08F38B4207D9691800F1FF3CBE
:100EA00017D28B4215D902382944C91A40EA07479C
:100EB0003BE73746304609E70746E7E61846FBE6D4
:100EC0004145ABD2B8EB020A69EB0E02013813467A
:100ED000A4E76046E9E7184695E76746D1E781460B
:100EE0007CE702382C4447E7ACF1020C2B442FE797
:100EF000384608E73746E9E6704700BF80B582B05C
:100F000000AF0E4B1B88BB80391D322302220C48D8
:100F100018F068F8FB1D01221946094818F0F4F88A
:100F2000084B1B684FF4FA71184619F0B5FC0346DC
:100F3000012B00BF0837BD4680BD00BFC8E10108D6
:100F4000D8A20020E095002080B584B000AF034611
:100F5000FB71FF233B7242237B72FB791B12DBB2D6
:100F6000BB72FB79FB7207F10801322304220B48A4
:100F700018F038F807F10C0303221946074818F057
:100F8000C3F8074B1B684FF4FA71184619F084FC3C
:100F90000346012B00BF1037BD4680BDD8A20020FC
:100FA000E095002080B500AF40F6B8301AF03AF96D
:100FB00003220021012019F0CDF80246044B1A60EB
:100FC0000120FFF7C1FFFFF799FF00BF80BD00BF01
:100FD000E095002080B584B000AF03460A46FB8050
:100FE0001346BB80FF233B7281237B72FB881B0A65
:100FF0009BB2DBB2BB72FB88DBB2FB72BB881B0A05
:101000009BB2DBB23B73BB88DBB27B7307F1080199
:10101000322306220B4817F0E5FF07F10F030122E8
:101020001946084818F070F8074B1B684FF4FA711E
:10103000184619F031FC0346012B00BF1037BD469E
:1010400080BD00BFD8A20020E095002080B586B00A
:1010500000AF78600023FB7502E0FB7D0133FB7578
:10106000FB7D7A6813441B783B2BF6D1FB7D632B09
:101070000BD94FF0500372B683F31188BFF36F8F13
:10108000BFF34F8F62B6FB60FEE71D4B00221A7064
:101090001B4B18225A7000233B610AE03B697A68B7
:1010A0001A443B6902331178154AD1543B69013324
:1010B0003B61FB7D3A699A42F0DBFB7D0233104ACB
:1010C0000021D154FB7D9BB203339AB232230C49E9
:1010D0000C4817F087FF07F1080303221946094857
:1010E00018F012F8084B1B684FF4FA71184619F003
:1010F000D3FB0346012B00BF1837BD4680BD00BFA0
:10110000CC940020D8A20020E095002080B584B0C7
:1011100000AF7860084611461A460346FB700B463E
:10112000BB7013463B800023FB813B88BA78F9787B
:10113000786801F03FF80346FB813A8BFB89114642
:101140001846FFF747FF7868FFF780FF00BF1037AA
:10115000BD4680BD90B589B000AF04460846114633
:101160001A462346FB8003467B710B467B80134661
:101170003B8007F1080300221A605A601A8100239D
:101180007B83B7F9063007F108010A2218461BF0E5
:1011900061FF0023FB6111E007F10802FB691344C2
:1011A00093F90030002B06D107F10802FB691344C4
:1011B0003B221A7005E0FB690133FB61FB69092BD7
:1011C000EADD797907F108030122184600F0F2F907
:1011D00003467B837A887B8B9A420BD84FF050036F
:1011E00072B683F31188BFF36F8FBFF34F8F62B670
:1011F0007B61FEE77A887B8BD31A9BB23A881146D3
:101200001846FFF7E7FE07F108031846FFF71EFF31
:1012100000BF2437BD4690BD80B586B000AF034601
:10122000FB8007F1080300221A605A601A81B7F99F
:10123000063007F108010A2218461BF00BFF0023B5
:101240007B6111E007F108027B69134493F90030D8
:10125000002B06D107F108027B6913443B221A7068
:1012600005E07B6901337B617B69092BEADD07F1CE
:1012700008031846FFF7EAFE00BF1837BD4680BDD9
:1012800080B584B000AF0346FB80FF233B72FE2392
:101290007B72FB881B0A9BB2DBB2BB72FB88DBB2A2
:1012A000FB7207F10801322304220B4817F09AFE63
:1012B00007F10F0301221946074817F025FF074BD6
:1012C0001B684FF4FA71184619F0E6FA0346012B31
:1012D00000BF1037BD4680BDD8A20020E095002099
:1012E00080B584B000AF0346FB71FF233B72EB2354
:1012F0007B72FB791B12DBB2BB72FB79FB7207F1CD
:101300000801322304220B4817F06CFE07F10C038E
:1013100003221946074817F0F7FE074B1B684FF4E6
:10132000FA71184619F0B8FA0346012B00BF1037BE
:10133000BD4680BDD8A20020E095002080B584B0D5
:1013400000AF0346FB71FF233B72EA237B72FB79FC
:101350001B12DBB2BB72FB79FB7207F1080132236F
:1013600004220B4817F03EFE07F10C030322194636
:10137000074817F0C9FE074B1B684FF4FA7118466F
:1013800019F08AFA0346012B00BF1037BD4680BD15
:10139000D8A20020E095002080B584B000AF0346BD
:1013A000FB71FF233B72EC237B72FB791B12DBB2D8
:1013B000BB72FB79FB7207F10801322304220B4850
:1013C00017F010FE07F10C0303221946074817F027
:1013D0009BFE074B1B684FF4FA71184619F05CFA34
:1013E0000346012B00BF1037BD4680BDD8A20020A8
:1013F000E095002080B584B000AF0346FB80FF235A
:101400003B72EE237B72FB881B0A9BB2DBB2BB7282
:10141000FB88DBB2FB7207F10801322304220B4880
:1014200017F0E0FD07F10C0303221946074817F0F7
:101430006BFE074B1B684FF4FA71184619F02CFA33
:101440000346012B00BF1037BD4680BDD8A2002047
:10145000E095002080B584B000AF0346FB71FF2308
:101460003B72E9237B72FB791B12DBB2BB72FB7907
:10147000FB7207F10801322304220B4817F0B2FD7A
:1014800007F10C0303221946074817F03DFE074BEE
:101490001B684FF4FA71184619F0FEF90346012B48
:1014A00000BF1037BD4680BDD8A20020E0950020C7
:1014B00080B584B000AF0346FB71FF233B72E52388
:1014C0007B72FB791B12DBB2BB72FB79FB7207F1FB
:1014D0000801322304220B4817F084FD07F10C03A6
:1014E00003221946074817F00FFE074B1B684FF4FD
:1014F000FA71184619F0D0F90346012B00BF1037D6
:10150000BD4680BDD8A20020E095002080B584B003
:1015100000AF0346FB71FF233B72E3237B72FB7931
:101520001B12DBB2BB72FB79FB7207F1080132239D
:1015300004220B4817F056FD07F10C03032219464D
:10154000074817F0E1FD074B1B684FF4FA71184686
:1015500019F0A2F90346012B00BF1037BD4680BD2C
:10156000D8A20020E095002090B583B000AF0446DB
:10157000084611461A462346FB800346BB800B46AD
:101580007B8013463B80FB88DBB21846FFF704FFE5
:10159000BB881846FFF72EFF7B88DBB21846FFF7A3
:1015A0009FFE3B88DBB21846FFF7C8FE00BF0C3732
:1015B000BD4690BD80B485B000AF78600B46FB702F
:1015C0001346BB700023FB8100237B7302E07B7B0F
:1015D00001337B737B7B7A6813441B783B2BF6D1FA
:1015E0000023BB6093E3BB687A6813441B78612BCC
:1015F00003D1FB890733FB8186E3BB687A68134418
:101600001B78622B03D1FB890733FB817CE3BB682A
:101610007A6813441B78632B03D1FB890633FB8163
:1016200072E3BB687A6813441B78642B03D1FB898F
:101630000733FB8168E3BB687A6813441B78652B2A
:1016400003D1FB890733FB815EE3BB687A681344EF
:101650001B78662B03D1FB890533FB8154E3BB6800
:101660007A6813441B78672B03D1FB890733FB810E
:101670004AE3BB687A6813441B78682B03D1FB8963
:101680000733FB8140E3BB687A6813441B78692BFE
:1016900003D1FB890233FB8136E3BB687A681344CC
:1016A0001B786A2B03D1FB890333FB812CE3BB68D6
:1016B0007A6813441B786B2B03D1FB890633FB81BB
:1016C00022E3BB687A6813441B786C2B03D1FB8937
:1016D0000233FB8118E3BB687A6813441B786D2BD7
:1016E00003D1FB890A33FB810EE3BB687A6813449C
:1016F0001B786E2B03D1FB890733FB8104E3BB68A6
:101700007A6813441B786F2B03D1FB890733FB8165
:10171000FAE2BB687A6813441B78702B03D1FB890B
:101720000733FB81F0E2BB687A6813441B78712BA6
:1017300003D1FB890733FB81E6E2BB687A68134477
:101740001B78722B03D1FB890533FB81DCE2BB687C
:101750007A6813441B78732B03D1FB890633FB8112
:10176000D2E2BB687A6813441B78742B03D1FB89DF
:101770000533FB81C8E2BB687A6813441B78752B7C
:1017800003D1FB890733FB81BEE2BB687A6813444F
:101790001B78762B03D1FB890733FB81B4E2BB684E
:1017A0007A6813441B78772B03D1FB890A33FB81BA
:1017B000AAE2BB687A6813441B78782B03D1FB89B3
:1017C0000733FB81A0E2BB687A6813441B78792B4E
:1017D00003D1FB890733FB8196E2BB687A68134427
:1017E0001B787A2B03D1FB890633FB818CE2BB6823
:1017F0007A6813441B78412B03D1FB890933FB81A1
:1018000082E2BB687A6813441B78422B03D1FB89C0
:101810000733FB8178E2BB687A6813441B78432B5B
:1018200003D1FB890733FB816EE2BB687A681344FE
:101830001B78442B03D1FB890833FB8164E2BB682E
:101840007A6813441B78452B03D1FB890733FB814E
:101850005AE2BB687A6813441B78462B03D1FB8994
:101860000633FB8150E2BB687A6813441B78472B30
:1018700003D1FB890833FB8146E2BB687A681344D5
:101880001B78482B03D1FB890833FB813CE2BB6802
:101890007A6813441B78492B03D1FB890233FB81FF
:1018A00032E2BB687A6813441B784A2B03D1FB8968
:1018B0000433FB8128E2BB687A6813441B784B2B06
:1018C00003D1FB890733FB811EE2BB687A681344AE
:1018D0001B784C2B03D1FB890633FB8114E2BB68D8
:1018E0007A6813441B784D2B03D1FB890933FB81A4
:1018F0000AE2BB687A6813441B784E2B03D1FB893C
:101900000833FB8100E2BB687A6813441B784F2BD5
:1019100003D1FB890833FB81F6E1BB687A68134485
:101920001B78502B03D1FB890733FB81ECE1BB68AB
:101930007A6813441B78512B03D1FB890833FB8150
:10194000E2E1BB687A6813441B78522B03D1FB8910
:101950000833FB81D8E1BB687A6813441B78532BAA
:1019600003D1FB890733FB81CEE1BB687A6813445E
:101970001B78542B03D1FB890833FB81C4E1BB687E
:101980007A6813441B78552B03D1FB890833FB81FC
:10199000BAE1BB687A6813441B78562B03D1FB89E4
:1019A0000933FB81B0E1BB687A6813441B78572B7D
:1019B00003D1FB890C33FB81A6E1BB687A68134431
:1019C0001B78582B03D1FB890833FB819CE1BB6852
:1019D0007A6813441B78592B03D1FB890833FB81A8
:1019E00092E1BB687A6813441B785A2B03D1FB89B8
:1019F0000833FB8188E1BB687A6813441B78202B8D
:101A000003D1FB890633FB817EE1BB687A6813440E
:101A10001B78212B03D1FB890233FB8174E1BB6866
:101A20007A6813441B78222B03D1FB890433FB8192
:101A30006AE1BB687A6813441B78272B03D1FB89C2
:101A40000233FB8160E1BB687A6813441B78252B65
:101A500003D1FB890B33FB8156E1BB687A681344E1
:101A60001B78232B03D1FB890933FB814CE1BB6835
:101A70007A6813441B78242B03D1FB890633FB813E
:101A800042E1BB687A6813441B78402B03D1FB8981
:101A90000C33FB8138E1BB687A6813441B785E2BFA
:101AA00003D1FB890733FB812EE1BB687A681344BD
:101AB0001B78262B03D1FB890933FB8124E1BB680A
:101AC0007A6813441B782A2B03D1FB890633FB81E8
:101AD0001AE1BB687A6813441B78282B03D1FB8971
:101AE0000433FB8110E1BB687A6813441B78292B0F
:101AF00003D1FB890433FB8106E1BB687A68134498
:101B00001B782D2B03D1FB890433FB81FCE0BB68E0
:101B10007A6813441B785F2B03D1FB890733FB8161
:101B2000F2E0BB687A6813441B782B2B03D1FB8946
:101B30000833FB81E8E0BB687A6813441B783D2BCF
:101B400003D1FB890933FB81DEE0BB687A6813446B
:101B50001B783A2B03D1FB890233FB81D4E0BB68AD
:101B60007A6813441B783B2B03D1FB890233FB813A
:101B7000CAE0BB687A6813441B782F2B03D1FB891A
:101B80000533FB81C0E0BB687A6813441B782E2BB9
:101B900003D1FB890233FB81B6E0BB687A6813444A
:101BA0001B782C2B03D1FB890233FB81ACE0BB6893
:101BB0007A6813441B787D2B03D1FB890633FB81A4
:101BC000A2E0BB687A6813441B787B2B03D1FB89A6
:101BD0000633FB8198E0BB687A6813441B785B2B63
:101BE00003D1FB890333FB818EE0BB687A68134421
:101BF0001B785D2B03D1FB890333FB8184E0BB6839
:101C00007A6813441B787E2B03D1FB890933FB814F
:101C10007AE0BB687A6813441B78602B03D1FB8998
:101C20000333FB8170E0BB687A6813441B785C2B3C
:101C300003D1FB890533FB8166E0BB687A681344F6
:101C40001B78302B03D1FB890733FB815CE0BB6839
:101C50007A6813441B78312B03D1FB890633FB814F
:101C600052E0BB687A6813441B78322B03D1FB899E
:101C70000733FB8148E0BB687A6813441B78332B39
:101C800003D1FB890733FB813EE0BB687A681344CC
:101C90001B78342B03D1FB890733FB8134E0BB680D
:101CA0007A6813441B78352B03D1FB890733FB81FA
:101CB0002AE0BB687A6813441B78362B03D1FB8972
:101CC0000733FB8120E0BB687A6813441B78372B0D
:101CD00003D1FB890733FB8116E0BB687A681344A4
:101CE0001B78382B03D1FB890733FB810CE0BB68E1
:101CF0007A6813441B78392B03D1FB890733FB81A6
:101D000002E0FB890733FB81BB680133BB607B7B4F
:101D1000BA689A42FFF667ACBB789BB2FA8912FBAD
:101D200003F3FB81BB78012B04D07B7B9BB2FA8948
:101D3000D31AFB81FB789AB27B7B9BB212FB03F335
:101D40009AB2FB891344FB81FB8918461437BD46C0
:101D50005DF8047B704780B485B000AF0346FB712B
:101D60000723FB73FB7B612B02D10723FB731AE272
:101D7000FB7B622B02D10723FB7314E2FB7B632BFB
:101D800002D10623FB730EE2FB7B642B02D10723F7
:101D9000FB7308E2FB7B652B02D10723FB7302E296
:101DA000FB7B662B02D10523FB73FCE1FB7B672BDE
:101DB00002D10723FB73F6E1FB7B682B02D10723DB
:101DC000FB73F0E1FB7B692B02D10223FB73EAE199
:101DD000FB7B6A2B02D10323FB73E4E1FB7B6B2BC0
:101DE00002D10623FB73DEE1FB7B6C2B02D10223C5
:101DF000FB73D8E1FB7B6D2B02D10A23FB73D2E18D
:101E0000FB7B6E2B02D10723FB73CCE1FB7B6F2B9B
:101E100002D10723FB73C6E1FB7B702B02D10723A2
:101E2000FB73C0E1FB7B712B02D10723FB73BAE18B
:101E3000FB7B722B02D10523FB73B4E1FB7B732B7D
:101E400002D10623FB73AEE1FB7B742B02D1052389
:101E5000FB73A8E1FB7B752B02D10723FB73A2E187
:101E6000FB7B762B02D10723FB739CE1FB7B772B5B
:101E700002D10A23FB7396E1FB7B782B02D1072367
:101E8000FB7390E1FB7B792B02D10723FB738AE183
:101E9000FB7B7A2B02D10623FB7384E1FB7B412B76
:101EA00002D10923FB737EE1FB7B422B02D1072386
:101EB000FB7378E1FB7B432B02D10723FB7372E1B9
:101EC000FB7B442B02D10823FB736CE1FB7B452B8E
:101ED00002D10723FB7366E1FB7B462B02D106236D
:101EE000FB7360E1FB7B472B02D10823FB735AE1B4
:101EF000FB7B482B02D10823FB7354E1FB7B492B6E
:101F000002D10223FB734EE1FB7B4A2B02D1042357
:101F1000FB7348E1FB7B4B2B02D10723FB7342E1B0
:101F2000FB7B4C2B02D10623FB733CE1FB7B4D2B4F
:101F300002D10923FB7336E1FB7B4E2B02D1082330
:101F4000FB7330E1FB7B4F2B02D10823FB732AE1AB
:101F5000FB7B502B02D10723FB7324E1FB7B512B2E
:101F600002D10823FB731EE1FB7B522B02D1082315
:101F7000FB7318E1FB7B532B02D10723FB7312E1A8
:101F8000FB7B542B02D10823FB730CE1FB7B552B0D
:101F900002D10823FB7306E1FB7B562B02D10923F8
:101FA000FB7300E1FB7B572B02D10C23FB73FAE0A0
:101FB000FB7B582B02D10823FB73F4E0FB7B592BEE
:101FC00002D10823FB73EEE0FB7B5A2B02D10823DE
:101FD000FB73E8E0FB7B202B02D10623FB73E2E0DE
:101FE000FB7B212B02D10223FB73DCE0FB7B222B4A
:101FF00002D10423FB73D6E0FB7B272B02D1022303
:10200000FB73D0E0FB7B252B02D10B23FB73CAE0D3
:10201000FB7B232B02D10923FB73C4E0FB7B242B26
:1020200002D10623FB73BEE0FB7B402B02D10C23C5
:10203000FB73B8E0FB7B5E2B02D10723FB73B2E09E
:10204000FB7B262B02D10923FB73ACE0FB7B2A2B05
:1020500002D10623FB73A6E0FB7B282B02D10423CD
:10206000FB73A0E0FB7B292B02D10423FB739AE0D6
:10207000FB7B2D2B02D10423FB7394E0FB7B5F2BB6
:1020800002D10723FB738EE0FB7B2B2B02D10823AD
:10209000FB7388E0FB7B3D2B02D10923FB7382E0BD
:1020A000FB7B3A2B02D10223FB737CE0FB7B3B2BB7
:1020B00002D10223FB7376E0FB7B2F2B02D1052399
:1020C000FB7370E0FB7B2E2B02D10223FB736AE0D3
:1020D000FB7B2C2B02D10223FB7364E0FB7B7D2B6B
:1020E00002D10623FB735EE0FB7B7B2B02D1062330
:1020F000FB7358E0FB7B5B2B02D10323FB7352E0A5
:10210000FB7B5D2B02D10323FB734CE0FB7B7E2B1F
:1021100002D10923FB7346E0FB7B602B02D1032332
:10212000FB7340E0FB7B5C2B02D10523FB733AE0A1
:10213000FB7B302B02D10723FB7334E0FB7B312B7D
:1021400002D10623FB732EE0FB7B322B02D1072347
:10215000FB7328E0FB7B332B02D10723FB7322E0C8
:10216000FB7B342B02D10723FB731CE0FB7B352B5D
:1021700002D10723FB7316E0FB7B362B02D107232A
:10218000FB7310E0FB7B372B02D10723FB730AE0C4
:10219000FB7B382B02D10723FB7304E0FB7B392B3D
:1021A00001D10723FB73FB7B18461437BD465DF84E
:1021B000047B704780B582B000AF78600846114656
:1021C0001A460346FB700B46BB7013463B80BA7839
:1021D000FB7819467868FFF7EDF903465B089BB278
:1021E0003A88D31A9BB218460837BD4680BD90B5D1
:1021F00085B002AF0446084611461A462346FB80C6
:102200000346BB800B467B8013467B707B789BB27A
:10221000FA88D31A9BB2013B98B23B7E9BB2BA8834
:10222000D31A9BB2013B99B2FA887B8813449AB2C5
:102230007B789BB213449CB23B7E9AB2BB8813441A
:102240009BB210339AB2BB8B00931346224600F028
:1022500095F800BF0C37BD4690BD90B585B002AF74
:102260000446084611461A462346FB800346BB80B7
:102270000B467B8013467B707B789BB2FA88D31A1F
:102280009BB2013B98B23B7E9BB2BA88D31A9BB2F9
:10229000013B99B2FA887B8813449AB27B789BB24F
:1022A00013449CB23B7E9AB2BB8813449BB210335A
:1022B0009AB2BB8B00931346224600F0B9F800BFD8
:1022C0000C37BD4690BD000090B587B000AF044606
:1022D000084611461A462346FB800346BB800B4640
:1022E0007B8013463B80FF233B727D237B72FB8800
:1022F0001B0A9BB2DBB2BB72FB88DBB2FB72BB88F2
:102300001B0A9BB2DBB23B73BB88DBB27B737B885F
:102310001B0A9BB2DBB2BB737B88DBB2FB733B88CF
:102320001B0A9BB2DBB23B743B88DBB27B743B8DF8
:102330001B0A9BB2DBB2BB743B8DDBB2FB7407F1B3
:10234000080132230C220B4816F04CFE07F117034C
:1023500001221946074816F0D7FE074B1B684FF4B9
:10236000FA71184618F098FA0346012B00BF1C3783
:10237000BD4690BDD8A20020E095002090B587B062
:1023800000AF0446084611461A462346FB80034622
:10239000BB800B467B8013463B80FF233B727A2336
:1023A0007B72FB881B0A9BB2DBB2BB72FB88DBB281
:1023B000FB72BB881B0A9BB2DBB23B73BB88DBB2F0
:1023C0007B737B881B0A9BB2DBB2BB737B88DBB25F
:1023D000FB733B881B0A9BB2DBB23B743B88DBB2CE
:1023E0007B743B8D1B0A9BB2DBB2BB743B8DDBB2B3
:1023F000FB7407F1080132230C220B4816F0F2FDA2
:1024000007F1170301221946074816F07DFE074B16
:102410001B684FF4FA71184618F03EFA0346012B78
:1024200000BF1C37BD4690BDD8A20020E09500201B
:1024300090B587B000AF0446084611461A462346B9
:10244000FB800346BB800B467B8013463B80FF230B
:102450003B7279237B72FB881B0A9BB2DBB2BB7297
:10246000FB88DBB2FB72BB881B0A9BB2DBB23B73FF
:10247000BB88DBB27B737B881B0A9BB2DBB2BB736E
:102480007B88DBB2FB733B881B0A9BB2DBB23B74DD
:102490003B88DBB27B743B8D1B0A9BB2DBB2BB7407
:1024A0003B8DDBB2FB7407F1080132230C220B4891
:1024B00016F098FD07F1170301221946074816F098
:1024C00023FE074B1B684FF4FA71184618F0E4F925
:1024D0000346012B00BF1C37BD4690BDD8A200208B
:1024E000E095002090B587B000AF0446084611463D
:1024F0001A462346FB800346BB800B467B8013466F
:102500003B80FF233B7378237B73FB881B0A9BB2C2
:10251000DBB2BB73FB88DBB2FB73BB881B0A9BB2CD
:10252000DBB23B74BB88DBB27B747B881B0A9BB23B
:10253000DBB2BB747B88DBB2FB743B881B0A9BB2AB
:10254000DBB23B753B88DBB27B7507F10C013223B4
:102550000A220B4816F046FD07F11703012219461F
:10256000074816F0D1FD074B1B684FF4FA71184667
:1025700018F092F90346012B00BF1C37BD4690BDF1
:10258000D8A20020E095002090B587B000AF0446A7
:10259000084611461A462346FB800346BB800B467D
:1025A0007B8013463B80FF233B7267237B72FB8853
:1025B0001B0A9BB2DBB2BB72FB88DBB2FB72BB882F
:1025C0001B0A9BB2DBB23B73BB88DBB27B737B889D
:1025D0001B0A9BB2DBB2BB737B88DBB2FB733B880D
:1025E0001B0A9BB2DBB23B743B88DBB27B743B8D36
:1025F0001B0A9BB2DBB2BB743B8DDBB2FB7407F1F1
:10260000080132230C220B4816F0ECFC07F11703EB
:1026100001221946074816F077FD074B1B684FF457
:10262000FA71184618F038F90346012B00BF1C3721
:10263000BD4690BDD8A20020E095002080B582B0B4
:1026400000AFFE233B703C237B70394632230222CD
:102650000A4816F0C7FC3B1D03221946074816F02E
:1026600053FD074B1B684FF47A71184618F014F9A4
:102670000346012B00BF0837BD4680BDD8A200200D
:10268000E095002080B485B000AF786039607B6849
:1026900000221A7305E07B681B7B0133DAB27B688A
:1026A0001A737B681B7B1A463B6813441B783B2BD1
:1026B000F1D17B681B7B082B00D9FEE70023FB6070
:1026C00015E0FB683A68134419787A68FB6813448C
:1026D0000A461A70FB683A68134419787A68FB68EE
:1026E00013440D330A461A70FB680133FB607B68A4
:1026F0001B7B1A46FB689342E3DB7B681B7B1A4615
:102700007B682E2199547B681B7B01337A68672193
:10271000D1547B681B7B02337A686321D1547B6878
:102720001B7B03337A686921D1547B681B7B1A4673
:102730007B6813442E225A737B681B7B01337A68B3
:10274000134464225A737B681B7B02337A681344F8
:1027500061225A737B681B7B03337A6813447422AB
:102760005A737B681B7B0433DAB27B681A7300BF31
:102770001437BD465DF8047B7047000080B58EB00D
:1027800000AF78600B46FB7000233B7409237B7419
:1027900000237B630FE07A687B6B13440D331A7858
:1027A0007B6B023352B207F138010B4403F8282C3B
:1027B0007B6B01337B637B681B7B1A467B6B93428D
:1027C000E9DB7B681B7B023307F1380213440022EC
:1027D00003F8282C00233B6312E07A683B6B134418
:1027E0001A787B681B7B19463B6B0B44033352B250
:1027F00007F138010B4403F8282C3B6B01333B6392
:102800007B681B7B1A463B6B9342E6DB7B681B7B3A
:102810005B00033307F138021344002203F8282C2D
:10282000FB781A127B681B7B02335B0052B207F104
:1028300038010B4403F8282C7B681B7B5B000533B5
:1028400097F9032007F138010B4403F8282C7B6823
:102850001B7B03339BB25B009AB207F11001642328
:10286000174816F0BFFB07F10C0303221946144862
:1028700016F04AFC134B1B684FF49671184618F07B
:102880000BF80346012B12D13B7B062B12D1BB7BED
:102890009AB27B685A837B685B8B1AB27B7B1B0284
:1028A0001BB213431BB29AB27B685A8302E07B6867
:1028B00000225A837B685B8B18463837BD4680BD43
:1028C000D8A20020E095002084B080B584B000AF8D
:1028D00007F1180C8CE80F00FE233B7185237B71F8
:1028E0007B8E1B0A9BB2DBB2BB717B8EDBB2FB71B2
:1028F000BB8F1B0A9BB2DBB23B72BB8FDBB27B721E
:10290000B7F840301B0A9BB2DBB2BB72B7F840305D
:10291000DBB2FB72B7F844301B0A9BB2DBB23B73ED
:10292000B7F84430DBB27B73391D32230A220C48DE
:1029300016F058FB3B4603221946094816F0E4FB03
:10294000084B1B684FF4FA71184617F0A5FF0346B1
:10295000012B00BF1037BD46BDE8804004B0704772
:10296000D8A20020E095002084B080B584B000AFEC
:1029700007F1180C8CE80F00FE233B718A237B7152
:102980007B8E1B0A9BB2DBB2BB717B8EDBB2FB7111
:10299000BB8F1B0A9BB2DBB23B72BB8FDBB27B727D
:1029A000B7F840301B0A9BB2DBB2BB72B7F84030BD
:1029B000DBB2FB72B7F844301B0A9BB2DBB23B734D
:1029C000B7F84430DBB27B73391D32230A220C483E
:1029D00016F008FB3B4603221946094816F094FB03
:1029E000084B1B684FF4FA71184617F055FF034661
:1029F000012B00BF1037BD46BDE8804004B07047D2
:102A0000D8A20020E095002084B080B584B000AF4B
:102A100007F1180C8CE80F00FE233B7283237B72B6
:102A20007B8E1B0A9BB2DBB2BB727B8EDBB2FB726E
:102A3000BB8F1B0A9BB2DBB23B73BB8FDBB27B73DA
:102A400007F10801322306220C4816F0CBFA3B1D91
:102A500003221946094816F057FB094B1B684FF42F
:102A6000FA71184617F018FF0346012B00BF103704
:102A7000BD46BDE8804004B0704700BFD8A200202A
:102A8000E095002080B485B000AFF860084611469C
:102A90001A4603467B810B463B811346FB80FB684D
:102AA00001229A813B8907EE903AB8EEE77AFB68FB
:102AB000D3ED0A7A67EE277AFCEEE77A17EE903AC2
:102AC0009AB2FB68DA813B8B07EE903AB8EEE77A70
:102AD000FB68D3ED0A7A67EE277AFCEEE77A17EE09
:102AE000903A9AB2FB681A823B8C07EE903AB8EEA5
:102AF000E77AFB68D3ED0A7A67EE277AFCEEE77A8D
:102B000017EE903A9AB2FB685A823B8D07EE903AE4
:102B1000B8EEE77AFB68D3ED0A7A67EE277AFCEE27
:102B2000E77A17EE903A9AB2FB689A823B8E07EEEC
:102B3000903AB8EEE77AFB68D3ED0A7A67EE277A27
:102B4000FCEEE77A17EE903A9AB2FB68DA823B8F96
:102B500007EE903AB8EEE77AFB68D3ED0A7A67EEB3
:102B6000277AFCEEE77A17EE903A9AB2FB681A835E
:102B7000FB687A895A83FB68FA889A83FB68BA8B68
:102B8000DA83FB68BA8C1A84FB68BA8D5A84FB68B6
:102B9000BA8E9A8400BF1437BD465DF8047B704737
:102BA00090B587B002AFF860084611461A46034652
:102BB0007B810B463B811346FB80FB687A891A8038
:102BC000FB683A895A80FB68FA889A80FB683A8CDD
:102BD000DA8097F828309AB2FB689A81FB68BA8C41
:102BE000DA84FB6800221A81FB6800225A81FB8884
:102BF00007EE903AF8EE677AFB68C3ED0A7AFB6855
:102C0000D3ED0A6ABB8C07EE903AB8EEE77AC6EECF
:102C1000877AFB68C3ED0A7AFB6897F82C2083F863
:102C20002C20FB681888FB685988FB681A88FB68A9
:102C30009B8813449CB2FB685A88FB68DB8813446A
:102C40009AB24FF6FF73009313462246FFF796FBA6
:102C500000BF1437BD4690BDB0B588B002AF7860F4
:102C60007B681A897B68DB8C9A4203D97B68DA8C93
:102C70007B681A817B681B8907EE903AB8EEE77A89
:102C80007B68D3ED0A7A67EE277AFCEEE77A17EED7
:102C9000903AFB817B685B8907EE903AB8EEE77A61
:102CA0007B68D3ED0A7A67EE277AFCEEE77A17EEB7
:102CB000903ABB81FA89BB89D31A9BB27B81FB898D
:102CC000002B1ED17B681B88013398B27B685B8820
:102CD000013399B27B681A887B689B8813449BB246
:102CE000013B9CB27B685A887B68DB8813449BB2AB
:102CF000013B9AB20023009313462246FFF798FB4C
:102D00001DE17B689B88FA899A4206D1B7F90A309F
:102D10009BB2013B9BB27B8111E1B7F90A30002BDA
:102D200000F00D817B689B89012B44D0B7F90A30F4
:102D3000002B20DD7B681A88BB89134498B27B681E
:102D40005B88013399B27B681A88BB8913449AB2B5
:102D50007B8913449CB27B685A887B68DB88134468
:102D60009BB2013B9AB24FF6FF7300931346224683
:102D7000FFF75EFBE3E07B681A88BB8913449AB2D5
:102D80007B89134498B27B685B88013399B27B6876
:102D90001A88BB8913449CB27B685A887B68DB889D
:102DA00013449BB2013B9AB2002300931346224680
:102DB000FFF73EFBC3E0B7F90A30002B00F0BF80FD
:102DC0007B6893F82C30002B56D1B7F90A30002BD2
:102DD0001EDA7B681A88BB8913449AB27B89134434
:102DE00098B27B685B88013399B27B681A88BB898B
:102DF00013449CB27B685A887B68DB8813449BB27F
:102E0000013B9AB20023009313462246FFF710FBC2
:102E100000237B612CE07A687B6904335B001344F8
:102E2000DB88FA899A4220D27B681B88013398B2EA
:102E30007B685B88013399B27B681A88FB891344ED
:102E40009CB27B685A887B68DB8813449BB2013B49
:102E50009DB27A687B690C335B0013445B880093F6
:102E60002B462246FFF7E4FA69E07B6901337B6178
:102E70007B69052BCFDD62E0B7F90A30002B23DA3E
:102E80007B681A887B689B8813449AB2BB89D31AE3
:102E900098B27B685B88013399B27B681A887B683B
:102EA0009B8813449AB2FB89D31A9CB27B685A88D8
:102EB0007B68DB8813449BB2013B9AB200230093EA
:102EC00013462246FFF7B4FA00233B6134E07A68E8
:102ED0003B6904335B001344DB88FA899A4228D2A9
:102EE0007B681A887B689B8813449BB2013B98B22D
:102EF0007B685B88013399B27B681A887B689B8802
:102F000013449AB2FB89D31A9CB27B685A887B68B7
:102F1000DB8813449BB2013B9DB27A683B690C335A
:102F20005B0013445B8800932B462246FFF780FA30
:102F300005E03B6901333B613B69052BC7DD7B68DD
:102F40001A897B685A8100BF1837BD46B0BD90B55D
:102F500087B002AFF860084611461A4603467B81E7
:102F60000B463B811346FB80FB687A891A80FB681D
:102F70003A895A80FB68FA889A80FB683A8CDA8032
:102F800097F828309AB2FB689A81FB68BA8CDA8489
:102F9000FB6800221A81FB6800225A813B8C07EEF5
:102FA000903AF8EE677AFB68C3ED0A7AFB68D3EDD6
:102FB0000A6ABB8C07EE903AB8EEE77AC6EE877ADB
:102FC000FB68C3ED0A7AFB6897F82C2083F82C2065
:102FD000FB681888FB685988FB681A88FB689B881F
:102FE00013449CB2FB685A88FB68DB8813449AB28E
:102FF0004FF6FF73009313462246FFF7BFF900BF59
:103000001437BD4690BDB0B588B002AF78607B681C
:103010001A897B68DB8C9A4203D97B68DA8C7B68DF
:103020001A817B681B8907EE903AB8EEE77A7B68D5
:10303000D3ED0A7A67EE277AFCEEE77A17EE903A3C
:10304000FB817B685B8907EE903AB8EEE77A7B6894
:10305000D3ED0A7A67EE277AFCEEE77A17EE903A1C
:10306000BB81FA89BB89D31A9BB27B81FB89002B78
:103070001ED17B681B88013398B27B685B88013363
:1030800099B27B681A887B689B8813449BB2013B8A
:103090009CB27B685A887B68DB8813449BB2013BF7
:1030A0009AB20023009313462246FFF7C1F92DE19F
:1030B0007B68DB88FA899A4206D1B7F90A309BB25D
:1030C000013B9BB27B8121E1B7F90A30002B00F074
:1030D0001D817B689B89012B54D0B7F90A30002BE6
:1030E00028DD7B681B88013398B27B685A887B682F
:1030F000DB8813449AB2BB89D31A9AB27B89D31A5C
:1031000099B27B681A887B689B8813449BB2013B09
:103110009CB27B685A887B68DB8813449AB2BB896F
:10312000D31A9AB24FF6FF73009313462246FFF765
:103130007FF9EBE07B681B88013398B27B685A8883
:103140007B68DB8813449AB2BB89D31A9AB27B8915
:10315000D31A99B27B681A887B689B8813449BB208
:10316000013B9CB27B685A887B68DB8813449AB227
:10317000BB89D31A9AB20023009313462246FFF765
:1031800057F9C3E0B7F90A30002B00F0BF807B6825
:1031900093F82C30002B66D1B7F90A30002B26DAD1
:1031A0007B681B88013398B27B685A887B68DB8810
:1031B00013449AB2BB89D31A9AB27B89D31A99B2B3
:1031C0007B681A887B689B8813449BB2013B9CB246
:1031D0007B685A887B68DB8813449AB2BB89D31A10
:1031E0009AB20023009313462246FFF721F90023E9
:1031F0007B6134E07A687B6904335B001344DB88CD
:10320000FA899A4228D27B681B88013398B27B687E
:103210005A887B68DB8813449AB2FB89D31A99B227
:103220007B681A887B689B8813449BB2013B9CB2E5
:103230007B685A887B68DB8813449BB2013B9DB254
:103240007A687B690C335B0013445B8800932B46E0
:103250002246FFF7EDF859E07B6901337B617B691A
:10326000052BC7DD52E0B7F90A30002B1BDA7B686B
:103270001B88013398B27B685A88FB89134499B242
:103280007B681A887B689B8813449BB2013B9CB285
:103290007B685A88BB8913449AB200230093134673
:1032A0002246FFF7C5F800233B612CE07A683B69B2
:1032B00004335B001344DB88FA899A4220D27B688E
:1032C0001B88013398B27B685B88013399B27B68B5
:1032D0001A887B689B8813449BB2013B9CB27B6835
:1032E0005A88FB8913449DB27A683B690C335B00B2
:1032F00013445B8800932B462246FFF799F805E0BC
:103300003B6901333B613B69052BCFDD7B681A8943
:103310007B685A8100BF1837BD46B0BDB0B58AB0D2
:1033200002AFF860084611461A4603467B810B46F9
:103330003B811346FB80B44BFB61FB881846FDF7CD
:10334000C1F804460D46F869FDF7CEF802460B4673
:1033500043EC102B19F0D4FE53EC102B20462946D9
:10336000FDF71AF903460C4618462146FDF7AEFB59
:1033700003467B83FB881846FDF7A4F804460D46F8
:10338000F869FDF7B1F802460B4643EC102B19F033
:10339000FBFE53EC102B20462946FDF7FDF80346B3
:1033A0000C4618462146FDF791FB03463B833B8EB6
:1033B00001331846FDF786F804460D46F869FDF717
:1033C00093F802460B4643EC102B19F099FE53EC90
:1033D000102B20462946FDF7DFF803460C46184619
:1033E0002146FDF773FB0346FB823B8E1846FDF733
:1033F00069F84FF00002854BFCF718FF03460C46B6
:1034000025461C46F869FDF76FF802460B4643EC6B
:10341000102B19F0B9FE53EC102B20462946FDF76E
:10342000BBF803460C4618462146FDF74FFB034602
:10343000BB82FB687A891A80FB685B697A890532EE
:1034400092B21A80FB683A895A80FB685B693A89B4
:10345000063A92B25A80FB68FA881A81FB881846AD
:10346000FDF730F803460C4618462146FDF756FB9B
:1034700003469AB2FB685A81FB683A8E9A80FB68D1
:10348000BA8E1A82FB6800229A81FB685B6900226F
:103490009A80FB684FF4C872DA81FB685B694FF46D
:1034A000C872DA80FB681A89FB685C893989788977
:1034B0004FF6FF7300932346FFF766F8002300934F
:1034C00040F2191340F2DF1215214FF4E670FEF7B7
:1034D000AFFFFB681B897A89D31A98B2FB685B89B6
:1034E0003A89D31A99B27A8B7B8913449CB23B8B6D
:1034F0003A89D31A9AB20023009313462246FEF764
:1035000097FFFB681B897A89D31A98B23B8B3A895B
:10351000D31A99B27B8B7A89D31A9CB23A8B3B89A6
:1035200013449AB20023009313462246FEF780FF0D
:10353000FB681B897A89D31A98B23A8B3B8913446A
:1035400099B27A8B7B8913449CB2FB685A893B8978
:1035500013449AB20023009313462246FEF768FFF5
:103560003B8E1846FCF7AEFF03460C461846214634
:10357000FDF7D4FA03469CB23A8E398978894FF622
:10358000FF7300932346FEF7FFFFFB681A88FB8A50
:10359000134498B2FB685A88BB8AD31A99B2FB6865
:1035A0001A887B8B13449CB2FB685A883B8BD31AD6
:1035B0009AB24FF6FF73009313462246FEF784FE3D
:1035C000FB681A88FB8A134498B2FB685A88BB8A46
:1035D000134499B2FB681A887B8B13449CB2FB6836
:1035E0005A883B8B13449AB24FF6FF7300931346ED
:1035F0002246FEF769FE4FF6FF70FDF7FBFEFB6803
:103600001B880C3304E000BFDB0F493F0000F03F94
:1036100098B2FB685B880C3B99B24FF6FF730222AD
:10362000FEF760FFFB685B69184600F0BDFF00BF56
:103630002037BD46B0BD00BFB0B586B002AF7860E0
:103640007B68B3F90C301A467B68B3F91030194621
:1036500040F267135B1A9A420DDA7B68B3F90C30BB
:103660009AB27B68B3F910309BB213449BB21AB282
:103670007B689A810FE07B68B3F910309AB27B685F
:10368000B3F90C309BB213449BB2A3F267139BB205
:103690001AB27B689A817B685B697A68B2F90C2000
:1036A0009A807B68B3F90C207B68B3F90E309A429C
:1036B00000F01E837B681A888B4BB3F900309BB2F5
:1036C000134498B27B685A88884BB3F900309BB298
:1036D000134499B27B681A88854BB3F900309BB2CA
:1036E00013449CB27B685A88824BB3F900309BB27A
:1036F00013449AB20023009313462246FEF7E4FDDA
:103700007B68B3F9183007EE903AF8EEE77AC7ED28
:10371000037AD7ED037A9FED787AF4EEC77AF1EE6B
:1037200010FA02DD754BFB600AE0D7ED037A9FEDDE
:10373000757AF4EEC77AF1EE10FA01D5704BFB60A2
:10374000F868FCF7D1FE66A3D3E90023FCF724FF59
:1037500003460C4618462146FDF700FA0346FB6077
:103760007B681B891846FCF7ADFE04460D46F868D9
:10377000FCF7BAFE02460B4643EC102B19F0C0FCD6
:1037800053EC102B20462946FCF706FF03460C4657
:1037900018462146FDF79AF903461AB2544B1A808F
:1037A0007B685B895B421846FCF78CFE04460D463D
:1037B000F868FCF799FE02460B4643EC102B19F013
:1037C000E3FC53EC102B20462946FCF7E5FE0346AC
:1037D0000C4618462146FDF779F903461AB2454BC7
:1037E0001A807B689B8801331846FCF76BFE044601
:1037F0000D46F868FCF778FE02460B4643EC102BAA
:1038000019F07EFC53EC102B20462946FCF7C4FE31
:1038100003460C4618462146FDF758F903461AB2EE
:10382000314B1A807B689B88DB431846FCF74AFEC5
:1038300004460D46F868FCF757FE02460B4643EC7B
:10384000102B19F0A1FC53EC102B20462946FCF755
:10385000A3FE03460C4618462146FDF737F90346FA
:103860001AB2224B1A807B681A881F4BB3F90030BA
:103870009BB2134498B27B685A881C4BB3F9003052
:103880009BB2134499B27B681A88194BB3F9003084
:103890009BB213449CB27B685A88164BB3F9003034
:1038A0009BB213449AB24FF48063009313462246AE
:1038B000FEF70AFD7B68B3F91A3007EE903AF8EE8E
:1038C000E77AC7ED037AD7ED037A9FED0B7AF4EE32
:1038D000C77AF1EE10FA17DD084BFB601FE000BF5E
:1038E00011E7FAA146DF913F9002002092020020EA
:1038F0009402002096020020000030420000304276
:10390000000030C2000030C2D7ED037A1FED037A09
:10391000F4EEC77AF1EE10FA01D56B4BFB60F86854
:10392000FCF7E2FD66A3D3E90023FCF735FE03466E
:103930000C4618462146FDF711F90346FB607B68EB
:103940001B891846FCF7BEFD04460D46F868FCF7D7
:10395000CBFD02460B4643EC102B19F0D1FB53EC88
:10396000102B20462946FCF717FE03460C46184646
:103970002146FDF7ABF803461AB2544B1A807B6818
:103980005B895B421846FCF79DFD04460D46F868CE
:10399000FCF7AAFD02460B4643EC102B19F0F4FB92
:1039A00053EC102B20462946FCF7F6FD03460C4647
:1039B00018462146FDF78AF803461AB2444B1A808E
:1039C0007B689B8801331846FCF77CFD04460D4656
:1039D000F868FCF789FD02460B4643EC102B19F002
:1039E0008FFB53EC102B20462946FCF7D5FD0346F0
:1039F0000C4618462146FDF769F803461AB2354BC6
:103A00001A807B689B88DB431846FCF75BFD044605
:103A10000D46F868FCF768FD02460B4643EC102B98
:103A200019F0B2FB53EC102B20462946FCF7B4FDED
:103A300003460C4618462146FDF748F803461AB2DD
:103A4000254B1A807B681A88224BB3F900309BB251
:103A5000134498B27B685A881F4BB3F900309BB26D
:103A6000134499B27B681A88184BB3F900309BB2A3
:103A700013449CB27B685A88154BB3F900309BB253
:103A800013449AB24FF48063009313462246FEF724
:103A90001BFC7B68B3F90C3007EE903AF8EEE77A3E
:103AA000C7ED037AD7ED037A9FED0C7AF4EEC77A6F
:103AB000F1EE10FA18DD0A4BFB6020E0AFF3008056
:103AC00011E7FAA146DF913F000030C294020020C6
:103AD0009602002090020020920200200000304256
:103AE00000003042000030C2D7ED037A1FED037AA8
:103AF000F4EEC77AF1EE10FA01D5894BFB60F86855
:103B0000FCF7F2FC84A3D3E90023FCF745FD034650
:103B10000C4618462146FDF721F80346FB607B68FA
:103B20001B891846FCF7CEFC04460D46F868FCF7E6
:103B3000DBFC02460B4643EC102B19F0E1FA53EC88
:103B4000102B20462946FCF727FD03460C46184655
:103B50002146FCF7BBFF03461AB2724B1A807B6802
:103B60005B895B421846FCF7ADFC04460D46F868DD
:103B7000FCF7BAFC02460B4643EC102B19F004FB91
:103B800053EC102B20462946FCF706FD03460C4655
:103B900018462146FCF79AFF03461AB2624B1A8078
:103BA0007B689B8802331846FCF78CFC04460D4664
:103BB000F868FCF799FC02460B4643EC102B19F011
:103BC0009FFA53EC102B20462946FCF7E5FC0346F0
:103BD0000C4618462146FCF779FF03461AB2534BB0
:103BE0001A807B689B881A466FF001039B1A18465F
:103BF000FCF768FC04460D46F868FCF775FC0246C5
:103C00000B4643EC102B19F0BFFA53EC102B204657
:103C10002946FCF7C1FC03460C4618462146FCF732
:103C200055FF03461AB2424B1A807B681A883F4BF5
:103C3000B3F900309BB2134498B27B685A883C4B6E
:103C4000B3F900309BB2134499B27B681A88354BA4
:103C5000B3F900309BB213449CB27B685A88324B54
:103C6000B3F900309BB213449AB24FF478430093F7
:103C700013462246FEF728FB7B681B880C3398B25C
:103C80007B685B880C3B99B24FF6FF730222FEF70C
:103C900029FC7B681B7F002B1BD07B68B3F90C20B1
:103CA0007B68B3F91A309A420DDD7B68B3F90C20BA
:103CB0007B68B3F918309A4205DA7B685B694FF488
:103CC00080625A810AE07B685B694FF6E0725A8134
:103CD00004E07B685B694FF6FF725A817B685B6921
:103CE000184600F04EFC7B685B69184600F05CFCEF
:103CF0007B681A7F7B685A777B68B3F90C207B68F6
:103D0000DA817B685A697B685B69B2F90420DA80E2
:103D100000BF1037BD46B0BD11E7FAA146DF913FA5
:103D2000000030C294020020960200209002002081
:103D30009202002090B587B002AFF86008461146A5
:103D40001A4603467B810B463B811346FB80FB688A
:103D50007A891A80FB685B697A89053292B21A8087
:103D6000FB683A895A80FB685B693A89063A92B2E5
:103D70005A80FB68FA881A81FB881846FCF7A2FB78
:103D800003460C4618462146FCF7C8FE03469AB285
:103D9000FB685A81FB683A8C9A80FB68BA8C1A825D
:103DA000FB685B6900229A80FB684FF4C872DA8175
:103DB000FB685B694FF4C872DA80FB681A89FB689C
:103DC0005C89398978894FF6FF7300932346FEF7A3
:103DD000DBFB3B8C1846FCF775FB03460C4618468C
:103DE0002146FCF79BFE03469CB23A8C39897889C0
:103DF0004FF6FF7300932346FEF7C6FB4FF6FF70A6
:103E0000FDF7F8FAFB681B880C3398B2FB685B88F7
:103E10000C3B99B24FF6FF730222FEF763FBFB687F
:103E20005B69184600F0C0FB00BF1437BD4690BD6B
:103E3000B0B586B002AF78607B68B3F90C301A4633
:103E40007B68B3F91030194640F267135B1A9A4247
:103E50000DDA7B68B3F90C309AB27B68B3F9103095
:103E60009BB213449BB21AB27B689A810FE07B68C5
:103E7000B3F910309AB27B68B3F90C309BB213449B
:103E80009BB2A3F267139BB21AB27B689A817B68DC
:103E90005B697A68B2F90C209A807B68B3F90C20D0
:103EA0007B68B3F90E309A4206D17B681A7F7B6833
:103EB0005B7F9A4200F0E3827B681A88C84BB3F9B3
:103EC00000309BB2134498B27B685A88C54BB3F953
:103ED00000309BB2134499B27B681A88C24BB3F985
:103EE00000309BB213449CB27B685A88BF4BB3F935
:103EF00000309BB213449AB200230093134622462B
:103F0000FEF7E2F97B68B3F918305A3B07EE903AB6
:103F1000F8EEE77AC7ED037AF868FCF7E5FAAEA3A6
:103F2000D3E90023FCF738FB03460C46184621462C
:103F3000FCF714FE0346FB607B681B891846FCF700
:103F4000C1FA04460D46F868FCF7CEFA02460B4665
:103F500043EC102B19F0D4F853EC102B20462946D3
:103F6000FCF71AFB03460C4618462146FCF7AEFD4B
:103F700003461AB29C4B1A807B685B891846FCF793
:103F8000A1FA04460D46F868FCF7AEFA02460B4665
:103F900043EC102B19F0F8F853EC102B204629466F
:103FA000FCF7FAFA03460C4618462146FCF78EFD4C
:103FB00003461AB28D4B1A807B689B8801331846E2
:103FC000FCF780FA04460D46F868FCF78DFA0246C5
:103FD0000B4643EC102B19F093F853EC102B2046B2
:103FE0002946FCF7D9FA03460C4618462146FCF749
:103FF0006DFD03461AB27A4B1A807B689B880133A9
:104000001846FCF75FFA04460D46F868FCF76CFAB0
:1040100002460B4643EC102B19F0B6F853EC102B6C
:1040200020462946FCF7B8FA03460C4618462146B6
:10403000FCF74CFD03461AB26A4B1A807B681A885B
:10404000674BB3F900309BB2134498B27B685A882F
:10405000644BB3F900309BB2134499B27B681A8861
:10406000614BB3F900309BB213449CB27B685A8811
:104070005E4BB3F900309BB213449AB24FF48063A5
:10408000009313462246FEF71FF97B68B3F91A30F6
:104090005A3B07EE903AF8EEE77AC7ED037AF868F4
:1040A000FCF722FA4CA3D3E90023FCF775FA034688
:1040B0000C4618462146FCF751FD0346FB607B6821
:1040C0001B891846FCF7FEF904460D46F868FCF714
:1040D0000BFA02460B4643EC102B19F011F853EC87
:1040E000102B20462946FCF757FA03460C46184683
:1040F0002146FCF7EBFC03461AB23B4B1A807B6867
:104100005B891846FCF7DEF904460D46F868FCF7B3
:10411000EBF902460B4643EC102B19F035F853EC43
:10412000102B20462946FCF737FA03460C46184662
:104130002146FCF7CBFC03461AB22C4B1A807B6855
:104140009B8801331846FCF7BDF904460D46F86814
:10415000FCF7CAF902460B4643EC102B18F0D0FFCF
:1041600053EC102B20462946FCF716FA03460C4662
:1041700018462146FCF7AAFC03461AB2184B1A80CF
:104180007B689B8801331846FCF79CF904460D4672
:10419000F868FCF7A9F902460B4643EC102B18F01F
:1041A000F3FF53EC102B20462946FCF7F5F90346A4
:1041B0000C4618462146FCF789FC03461AB2094B07
:1041C0001A807B681A88064BB3F900309BB21344FF
:1041D00098B27B685A880BE011E7FAA146DF913F5D
:1041E000980200209A0200209C0200209E020020DB
:1041F000AF4BB3F900309BB2134499B27B681A8875
:10420000AC4BB3F900309BB213449CB27B685A8824
:10421000A94BB3F900309BB213449AB24FF48063B8
:10422000009313462246FEF74FF87B68B3F90C3033
:1042300007EE903AF8EEE77AC7ED037AD7ED037A06
:104240009FED9E7A77EEC77AC7ED037AF868FCF7A0
:104250004BF995A3D3E90023FCF79EF903460C46DE
:1042600018462146FCF77AFC0346FB607B681B89F5
:104270001846FCF727F904460D46F868FCF734F9B0
:1042800002460B4643EC102B18F03AFF53EC102B70
:1042900020462946FCF780F903460C46184621467D
:1042A000FCF714FC03461AB2824B1A807B685B89C8
:1042B0001846FCF707F904460D46F868FCF714F9B0
:1042C00002460B4643EC102B18F05EFF53EC102B0C
:1042D00020462946FCF760F903460C46184621465D
:1042E000FCF7F4FB03461AB2734B1A807B689B8879
:1042F00002331846FCF7E6F804460D46F868FCF76A
:10430000F3F802460B4643EC102B18F0F9FE53EC81
:10431000102B20462946FCF73FF903460C46184669
:104320002146FCF7D3FB03461AB2654B1A807B6823
:104330009B8802331846FCF7C5F804460D46F8681A
:10434000FCF7D2F802460B4643EC102B18F01CFF8A
:1043500053EC102B20462946FCF71EF903460C4669
:1043600018462146FCF7B2FB03461AB2504B1A809E
:104370007B681A88524BB3F900309BB2134498B251
:104380007B685A884A4BB3F900309BB2134499B208
:104390007B681A88474BB3F900309BB213449CB238
:1043A0007B685A88444BB3F900309BB213449AB2ED
:1043B0004FF47843009313462246FDF785FF7B6850
:1043C0001B880C3398B27B685B880C3B99B24FF624
:1043D000FF730222FEF786F87B681B7F002B3FD01D
:1043E0007B68B3F918207B68B3F91A309A421BDD59
:1043F0007B68B3F90C207B68B3F918309A4207DC6C
:104400007B68B3F90C207B68B3F91A309A4205DA5D
:104410007B685B694FF480625A8126E07B685B6948
:104420004FF6E0725A8120E07B68B3F90C207B687C
:10443000B3F918309A420DDD7B68B3F90C207B6824
:10444000B3F91A309A4205DA7B685B694FF48062EF
:104450005A810AE07B685B694FF6E0725A8104E09A
:104460007B685B694FF6FF725A817B685B6918460F
:1044700000F087F87B685B69184600F095F87B6868
:104480001A7F7B685A777B68B3F90C207B68DA81E6
:104490007B685A697B685B69B2F90420DA8000BFE7
:1044A0001037BD46B0BD00BF11E7FAA146DF913F0E
:1044B0009A0200209C0200209E0200200000B442CC
:1044C0009802002080B485B000AFF860084611461D
:1044D0001A4603467B810B463B811346FB80FB68F3
:1044E0003A891A80FB687A895A80FB6800221A810F
:1044F000FB6800229A80FB680122DA80FB68FA8858
:104500005A8100BF1437BD465DF8047B704780B404
:1045100085B000AFF860084611461A4603467B8115
:104520000B463B811346FB80FB6801225A81FB68E6
:104530003A899A81FB683A8BDA81FB683A8C1A8255
:10454000FB683A8D5A82FB683A8E9A82FB683A8FF2
:10455000DA82FB687A891A83FB68FA885A83FB68D7
:10456000BA8B9A83FB68BA8CDA83FB68BA8D1A849B
:10457000FB68BA8E5A8400BF1437BD465DF8047BD1
:10458000704780B483B000AF78607B68B3F90430C3
:104590009BB201339BB21AB27B68DA8000BF0C3742
:1045A000BD465DF8047B704790B58DB002AF786072
:1045B0004FF6FF73FB8407F10C0300221A605A6068
:1045C0001A817B68B3F904207B68B3F906309A42FC
:1045D00000F08F807B681B89002B12D07B681A88C3
:1045E0007B681B89D31A98B27B6859887B681A88C4
:1045F0007B685B880F339CB2002300932346FDF752
:1046000017FF7B68B3F90430184607F10C030A2240
:10461000194618F01FFD00233B6211E007F10C0260
:104620003B6A134493F90030002B06D107F10C02CA
:104630003B6A13443B221A7005E03B6A01333B623C
:104640003B6A092BEADD07F10C0301220021184621
:10465000FCF7B0FF03461A467B681A817B685B89CA
:10466000012B1CD10023FB6115E07B68B3F90430FA
:1046700019467A68FB6904335B0013449B889942AE
:1046800006DA7B68FA690C3233F81230FB8409E0F1
:10469000FB690133FB61FB69052BE6DD02E07B680A
:1046A0005B89FB84FB8C1846FCF7A4FE7B681A88A8
:1046B0007B681B899A420BD84FF0500372B683F384
:1046C0001188BFF36F8FBFF34F8F62B6BB61FEE7F8
:1046D0007B681A887B681B89D31A9AB27B685B88CF
:1046E00019461046FCF776FC07F10C031846FCF758
:1046F000ADFC7B68B3F904207B68DA8000BF2C37FF
:10470000BD4690BD90B593B002AF78600B46FB708C
:104710004FF6FF73FB8707F1080300221A605A6007
:104720001A81002387F83D30002387F82B307B68FF
:10473000B3F904207B68B3F906309A4200F0558142
:104740007B681B89002B12D07B681A887B681B89C9
:10475000D31A98B27B6859887B681A887B685B8813
:104760000F339CB2002300932346FDF761FE7B6864
:10477000B3F90430002B16D13020FDF7ECFA0346D4
:104780009AB27B681A817B681A887B681B89D31A66
:104790009AB27B685B8819461046FCF71BFC3020F8
:1047A000FCF76EFD21E17B68B3F90430184607F190
:1047B00008030A22194618F04DFC0023BB6316E0DB
:1047C00007F10802BB6B134493F90030002B0BD1A7
:1047D00007F10802BB6B13443B221A70BB6BDBB2C0
:1047E000013387F83D3005E0BB6B0133BB63BB6B26
:1047F000092BE5DD97F83D305A1EFB789A4259DACD
:10480000FB78023387F82B3097F82B30013B7B6322
:1048100045E07B6B002B0BDA4FF0500372B683F34D
:104820001188BFF36F8FBFF34F8F62B67B62FEE7D5
:1048300097F82B2097F83D30D31A7A6BD31A002BB8
:104840000BDA4FF0500372B683F31188BFF36F8F0A
:10485000BFF34F8F62B63B62FEE797F82B2097F8C5
:104860003D30D31A7A6BD31A07F14002134413F97F
:10487000381C07F108027B6B13440A461A7097F83C
:104880002B2097F83D30D31A7A6BD31A07F14002E8
:104890001344302203F8382C7B6B013B7B6397F881
:1048A0002B2097F83D30D31A7A6B9A42B1DA2E2337
:1048B0003B7244E097F83D303B632EE03B6B002BAE
:1048C0000BDA4FF0500372B683F31188BFF36F8F8A
:1048D000BFF34F8F62B6FB61FEE73B6B013B002BE2
:1048E0000BDA4FF0500372B683F31188BFF36F8F6A
:1048F000BFF34F8F62B6BB61FEE73B6B013B07F135
:104900004002134413F9381C07F108023B6B1344AF
:104910000A461A703B6B013B3B6397F83D20FB78DE
:10492000D31A3A6B9A42C9DA97F83D20FB78D31A2A
:10493000013B07F1400213442E2203F8382C07F103
:104940000803012200211846FCF734FE03461A46EC
:104950007B681A817B685B89012B1CD10023FB6279
:1049600015E07B68B3F9043019467A68FB6A0433B2
:104970005B0013449B88994206DA7B68FA6A0C3222
:1049800033F81230FB8709E0FB6A0133FB62FB6AF4
:10499000052BE6DD02E07B685B89FB87FB8F184611
:1049A000FCF728FD7B681A887B681B899A420BD824
:1049B0004FF0500372B683F31188BFF36F8FBFF3CC
:1049C0004F8F62B67B61FEE77B681A887B681B8924
:1049D000D31A9AB27B685B8819461046FCF7FAFA3C
:1049E00007F108031846FCF731FB7B68B3F9042094
:1049F0007B68DA8000BF4437BD4690BD80B582B089
:104A000000AF7860044B1B680021184615F0D0FDFC
:104A100000BF0837BD4680BDE095002080B483B05C
:104A200000AF7860044A7B68136000BF0C37BD4656
:104A30005DF8047B704700BF6C9F002080B584B098
:104A400000AF78600B467B8013463B8002E001207C
:104A50000FF0A2FC254B1B6893F85D30DBB2012BF5
:104A6000F5D100F081F902233B727B881B0A9BB2CF
:104A7000DBB27B727B88DBB2BB72002240211C4818
:104A800011F02CFB07F108030321184600F0D6F9BA
:104A90000023BB7311E0154B18683A8864237968CA
:104AA00012F01AFC0346FB73FB7B022B09D1012099
:104AB0000FF072FCBB7B0133BB73BB7B042BEAD9C9
:104AC00000E000BF01224021094811F007FB00F07F
:104AD0007FF900F063F9FB7B012B01D1022300E099
:104AE000012318461037BD4680BD00BF6C9F0020D3
:104AF0000004024080B586B000AF78600B467B8032
:104B000013463B800023FB8200237B8200233B82F1
:104B10000023FB810023BB8100237B8100237B7565
:104B20007B8803F01F033B823B8AC3F12003FB8198
:104B30003B885B09FB823B8803F01F037B823B8A37
:104B4000002B3CD1FB8A002B24D13B887B817A89C6
:104B50007B8819467868FFF771FF03467B757B7D7C
:104B6000012B00F0B7807B7DB5E020237B817A8923
:104B70007B8819467868FFF761FF03467B757B7D6C
:104B8000012B01D07B7DA6E07B8820337B807B6876
:104B900020337B60FB8A5A1EFA82002BE5D17B8A88
:104BA0007B817A897B8819467868FFF747FF03463F
:104BB0007B757B7D012B00F08D807B7D8BE0FB8AFC
:104BC000002B38D17A8AFB899A4225D97A8AFB89C7
:104BD000D31ABB81FB897B817A897B8819467868E7
:104BE000FFF72CFF03467B757B7D012B01D07B7D7E
:104BF00071E07A88FB8913447B80FB897A681344CF
:104C00007B60BB897B817A897B8819467868FFF74E
:104C100015FF03467B7509E03B887B817A897B8899
:104C200019467868FFF70AFF03467B757B7D012BE9
:104C300050D07B7D4FE03A88FB89D31A3B803B887C
:104C40005B09FB823B8803F01F037B82FB897B812E
:104C50007A897B8819467868FFF7F0FE03467B75F2
:104C60007B7D012B01D07B7D35E07A88FB89134465
:104C70007B80FB897A6813447B6014E020237B816E
:104C80007A897B8819467868FFF7D8FE03467B75DA
:104C90007B7D012B01D07B7D1DE07B8820337B80D9
:104CA0007B6820337B60FB8A5A1EFA82002BE5D199
:104CB0007B8A002B0ED07B8A7B817A897B88194680
:104CC0007868FFF7BBFE03467B757B7D012B01D027
:104CD0007B7D00E0012318461837BD4680BD0000EB
:104CE00080B584B000AF78600B467B8013463B8074
:104CF00002E001200FF050FB194B1B6893F85D3068
:104D0000DBB2012BF5D103233B737B881B0A9BB2DB
:104D1000DBB27B737B88DBB2BB730022402111487E
:104D200011F0DCF907F10C030321184600F086F8B6
:104D300002E001200FF030FB094B18683A88C823C5
:104D4000796812F02FFC0346022BF2D00122402199
:104D5000044811F0C3F9012318461037BD4680BD41
:104D60006C9F00200004024080B582B000AF00229A
:104D70004021094811F0B2F906233B713B1D012186
:104D8000184600F05BF801224021034811F0A6F913
:104D900000BF0837BD4680BD0004024080B582B028
:104DA00000AF00224021094811F098F904233B711B
:104DB0003B1D0121184600F041F801224021034823
:104DC00011F08CF900BF0837BD4680BD00040240D9
:104DD00080B582B000AF00233B7105233B700022F9
:104DE0004021144811F07AF93B460121184600F0A1
:104DF00025F802E001200FF0CFFA0F4B1868391D9B
:104E0000C823012212F0CEFB0346022BF2D0012070
:104E10000FF0C2FA3B7903F00103002BEDD1012220
:104E20004021044811F05AF9002318460837BD46BE
:104E300080BD00BF000402406C9F002080B582B09E
:104E400000AF78600B46FB7002E001200FF0A4FA7F
:104E50000B4B1B6893F85D30DBB2002BF5D0084B91
:104E60001868FB789AB2C823796812F035FA0346BD
:104E7000002B01D00AF0ECFA00BF0837BD4680BD18
:104E80006C9F002090B484B000AF4A4B00221A708F
:104E9000484B00225A70474B00229A70454B002223
:104EA000DA70444B444A5A60424B00229A60002315
:104EB000FB6007E0414AFB683E4942F82310FB686B
:104EC0000133FB60FB68042BF4DD0023BB600CE0C6
:104ED0003B4ABB681B011344364A1C4613460FCBA2
:104EE00084E80F00BB680133BB60BB68092BEFDDB2
:104EF00000237B6051E0334A7B6852F82330002264
:104F000083F828202F4A7B6852F8233000221A6049
:104F10002C4A7B6852F8233000225A71294A7B6858
:104F200052F8233000221A71264A7B6852F8233047
:104F3000002283F83120234A7B6852F82330002274
:104F400083F832201F4A7B6852F82330002283F80E
:104F500038201C4A7B6852F82330174A5A630023D2
:104F60003B6014E0174A7B6852F823303A680232FB
:104F7000104943F82210134A7B6852F823203B68FB
:104F80001344293300221A703B6801333B603B68AD
:104F9000072BE7DD7B6801337B607B68072BAADD8D
:104FA000084B002283F8202000BF1037BD4690BC7C
:104FB000704700BFD0950020CCE10108E4950020A7
:104FC000309500201896002080B485B000AF0346CD
:104FD000FB71094BFB60FB79072B05D8FB79074A6E
:104FE00052F823305B6BFB60FB6818461437BD46F4
:104FF0005DF8047B704700BFCCE1010818960020E3
:1050000080B485B000AFF860B9601346FB71BB682F
:1050100000221A70BB6800225A70BB68FA799A7035
:10502000FB685A6BBB685A60FB685B791A46FB6881
:105030000232B96843F82210FB6893F83820BB6845
:105040001A73FB685B790133DAB2FB685A7100BFEF
:105050001437BD465DF8047B7047000080B485B00E
:1050600000AFF860B96011461A460B46FB71134653
:10507000BB71FB68BA681A60FB6800221A71FB6892
:1050800000225A71FB68FA7983F82820FB68BA7904
:1050900083F83120FB68012283F83220FB68BA696B
:1050A0005A63114B93F82030082B16D80E4B93F807
:1050B0002020FB6883F838200B4B93F820301946EA
:1050C000094AFB6842F82130074B93F8203001333E
:1050D000DAB2054B83F8202000E0FEE71437BD4626
:1050E0005DF8047B704700BF1896002080B485B03F
:1050F00000AF78600B46FB700023FB730023BB609E
:105100000DE0104ABB6852F823301B687A689A4257
:1051100002D1BB68FB7305E0BB680133BB60BB68B1
:10512000072BEEDDFB7B002B06D0FB7B054A52F8FC
:105130002330FA7883F8312000BF1437BD465DF87C
:10514000047B70471896002080B485B000AF78606B
:1051500039600023FB6032E07B685B791A467B682C
:1051600093F83130D31A002B00DAFEE77B685B79C5
:105170001A467B6893F83130D31A082B00DDFEE71E
:105180007A68FB68134429331A78FB6839680B4442
:105190001B789A4210D07B681B79002B02D17B6868
:1051A00001221A71FB683A68134419787A68FB681F
:1051B000134429330A461A70FB680133FB607B688D
:1051C0005B791A467B6893F83130D31AFA689A42B1
:1051D000C2DB00BF1437BD465DF8047B704790B555
:1051E00085B000AF786039607B681B79002B00F0D8
:1051F000B0800023FB609EE07B685B791A467B6889
:1052000093F83130D31A002B00DAFEE77B685B7924
:105210001A467B6893F83130D31A082B00DDFEE77D
:10522000FB68DBB21946786800F0B0F80346FB7201
:10523000FB7A522B08D0FB7A662B05D0FB7A152B14
:1052400002D0FB7A3D2B07D17B68FA68023253F813
:1052500022300122DA7009E0FB7AA42B06D17B68A8
:10526000FA68023253F822300222DA70FA7A7B6846
:1052700093F8283018467B68F968023153F82130DA
:105280009B78034401339A423BD0FB7A632B38D09E
:105290007B68FA68023253F822301B78002B08D161
:1052A0007B68FA68023253F8224000F0E9F80346BE
:1052B00063707B68FA68023253F822301B78FA7AFE
:1052C0009A4215D07B68FA68023253F822303A6865
:1052D0009A607B68FA68023253F82230FA7A1A70C0
:1052E0007B68FA68023253F822300FCB00F06AFA7A
:1052F0007B68FA68023253F82230184600F02EF824
:1053000016E07B68FA68023253F822301B78002BD3
:105310000ED07B68FA68023253F8223000221A70ED
:105320007B68FA68023253F82230184600F016F80B
:10533000FB680133FB607B685B791A467B6893F8F6
:105340003130D31AFA689A42FFF656AF7B680022D2
:105350001A7100BF1437BD4690BD000080B582B001
:1053600000AF78607B685B78042B08D87B685B783B
:105370001946054A7B6842F8213000F0A3F800BFC7
:105380000837BD4680BD00BFE495002080B485B0DD
:1053900000AF78600B46FB700023FB73FB787A68E4
:1053A000134493F82930052B4AD801A252F823F070
:1053B000C9530008DD530008F153000805540008E4
:1053C000195400082D540008FA787B68023253F80B
:1053D00022300022DA700123FB733BE00223FB73CF
:1053E000FA787B68023253F822300122DA7031E019
:1053F0000323FB73FA787B68023253F822300222CF
:10540000DA7027E00423FB73FA787B68023253F8E2
:1054100022300122DA701DE00523FB73FA787B68E5
:10542000023253F822300222DA7013E00623FB73B3
:10543000FA787B68023253F822300222DA7009E0EF
:105440000023FB73FA787B68023253F82230002283
:10545000DA7000BFFA787B68023253F822309A780B
:10546000FB7B1344FB737B6893F82820FB7B13447E
:10547000FB73FB7B18461437BD465DF8047B704711
:1054800080B483B000AF6323FB7100233B600CE06A
:105490000B4A3B6852F823301B78002B02D13B6843
:1054A000FB7105E03B6801333B603B68042BEFDD9B
:1054B000FB7918460C37BD465DF8047B704700BF8A
:1054C000E495002080B483B000AF00237B6027E028
:1054D000184A7B6852F823301B78002B1DD17B685B
:1054E0000133144A52F823301B78002B15D07B6807
:1054F0000133104A52F823200E497B6841F82320DB
:105500000C4A7B6852F823307A68D2B25A707B68B2
:105510000133084A084942F823107B6801337B6055
:105520007B68032BD4DD00BF0C37BD465DF8047BE0
:10553000704700BFE4950020D095002080B584B06E
:1055400000AFF860B9607A60B968F868FFF7FCFDF1
:105550007968F868FFF743FE00BF1037BD4680BD8D
:1055600080B586B000AFF860B9607A600023FB7543
:1055700000233B611CE0124A3B6952F823301B6850
:10558000FA689A4211D10E4A3B6952F8233001223F
:1055900083F832200A4A3B6952F823307A68B968A6
:1055A0001846FFF7CBFF0123FB753B6901333B61D5
:1055B0003B69072BDFDDFB7D18461837BD4680BDF4
:1055C0001896002090B585B000AF78600023FB727C
:1055D0000023FB60A6E0574AFB6852F823305B7952
:1055E000FB72544AFB6852F8233093F83230002B98
:1055F00063D1504AFB6852F8233093F83130012BC5
:105600005BD14C4AFB6852F82330FA7A013A0232F5
:1056100053F822301B78002B7AD1464AFB6852F8A7
:105620002330FA7A013A023253F82240FFF728FF7A
:10563000034663703F4AFB6852F82330FA7A013A16
:10564000023253F822307A689A603A4AFB6852F87C
:105650002330FA7A013A023253F822203549FB68A6
:1056600051F82330F97A0139023153F82130927818
:105670001A70304AFB6852F82330FA7A013A023243
:1056800053F822300222DA702A4AFB6852F823309B
:10569000FA7A013A023253F822301846FFF75EFEDA
:1056A000244AFB6852F82330FA7A013A023253F85E
:1056B00022300FCB00F086F82AE01E4AFB6852F831
:1056C0002330FA7A013A023253F822301B78002B49
:1056D0001ED0184AFB6852F8233093F83130002B63
:1056E00016D0144AFB6852F82330FA7A013A023293
:1056F00053F8223000221A700E4AFB6852F8233009
:10570000FA7A013A023253F822301846FFF726FEA1
:10571000084AFB6852F82330002283F83220FB68E5
:105720000133FB60FB68072B7FF755AF00BF1437D1
:10573000BD4690BD1896002080B483B000AF002312
:10574000FB7100233B601BE0124A3B6852F8233098
:105750001B78002B11D00F4A3B6852F82330DB78BE
:10576000022B01D102230FE00A4A3B6852F8233092
:10577000DB78012B01D10123FB713B6801333B60D6
:105780003B68042BE0DDFB7918460C37BD465DF81D
:10579000047B7047E495002080B483B000AF0346DB
:1057A0003960FB71FB79064A1B01134408331B68FF
:1057B0003A68D31A18460C37BD465DF8047B70472B
:1057C0003095002090B486B000AF3C4684E80F00CE
:1057D00009237B610FE07B69013B0E497A69120165
:1057E00011440C4A1B0113440C460FCB84E80F00F4
:1057F0007B69013B7B617B69002BECDC054B1C4624
:105800003B460FCB84E80F0000BF1837BD4690BC65
:10581000704700BF3095002090B482B000AF0023E5
:105820007B600CE00A4A7B681B011344094A1C4652
:1058300013460FCB84E80F007B6801337B607B68E5
:10584000092BEFDD00BF0837BD4690BC704700BF95
:1058500030950020D095002080B485B000AFF8606E
:10586000B9607A60FB68074A1A60BB68064A1A602A
:105870007B6880221A6000BF1437BD465DF8047B48
:10588000704700BFA0020020F402002080B485B061
:1058900000AFF860B9607A60FB68074A1A60BB68BD
:1058A000064A1A607B684FF480721A6000BF143792
:1058B000BD465DF8047B7047F404002048050020D5
:1058C00090B583B002AF0EF03AFD00F017F900F08A
:1058D000C3FB00F059FA00F0CBFA00F03FFB00F0F8
:1058E0006DFB00F09BFB00F09BF900F083FA63482E
:1058F000FFF794F800F090FC00F072FD60480FF0A4
:1059000032FBFFF7BFFA5F4B64225A605D4B1B68A6
:105910005D49184612F0E0FE322009F069FDFA20D8
:105920000EF03AFD574BAF225A60564B1B68564952
:10593000184612F0D1FE322009F05AFDFA200EF07E
:105940002BFD504BFA225A604E4B1B684E491846AD
:1059500012F0C2FE322009F04BFDFA200EF01CFDC1
:10596000484B64225A60002009F042FD474B0093E7
:10597000002301224FF47A71454816F01FFC0246BD
:10598000444B1A60434B1C6815F046FE0246002348
:10599000009300230121204616F064FC3E4B009347
:1059A000002300221E213D4816F008FC02463C4B15
:1059B0001A603C4B0093002301227D213A4816F0E7
:1059C000FDFB0246394B1A6000222021022014F010
:1059D000C1FB0246364B1A6000220121012014F05F
:1059E000B9FB0246334B1A6000220921012014F052
:1059F000B1FB0246304B1A6000220421022014F051
:105A0000A9FB02462D4B1A602D4B019304230093F2
:105A100000234FF4C0622B492B4815F054FA2B4B4E
:105A200001930523009300234FF44072284929482D
:105A300015F049FA284B019301230093002380229B
:105A40002649274815F03FFA264B0193022300937D
:105A500000234FF420722449244815F034FA244BD3
:105A600001930123009300234FF42072214922481F
:105A700015F029FA14F0CCF9FEE700BF6CA2002063
:105A8000B8A30020D8A00020DCA00020F1F100087D
:105A9000B8EC0108E49F002059F30008D0EC01089D
:105AA00038A200207DF30008E4EC0108EC9F002000
:105AB00018A10020789F0020B0A00020D0A20020D4
:105AC00048090020F4EC0108516E00084C09002040
:105AD00000ED0108B9DD0008500900200CED0108B7
